{
  "transactions": [
    {
      "hash": "0xe7f5438c722985b6fd1ca59831ecc479787a142bff9714db949cb69662b06ed0",
      "transactionType": "CALL",
      "contractName": "LinkToken",
      "contractAddress": "0x779877A7B0D9E8603169DdbD7836e478b4624789",
      "function": "transferAndCall(address,uint256,bytes)",
      "arguments": [
        "0x8103B0A8A00be2DDC778e6e7eaa21791Cd364625",
        "3000000000000000000",
        "0x00000000000000000000000000000000000000000000000000000000000029a8"
      ],
      "transaction": {
        "type": "0x02",
        "from": "0x4eb5a9c1ed58ebb475db83c794ea3267d42c85de",
        "to": "0x779877a7b0d9e8603169ddbd7836e478b4624789",
        "gas": "0x13fbe",
        "value": "0x0",
        "data": "0x4000aea00000000000000000000000008103b0a8a00be2ddc778e6e7eaa21791cd36462500000000000000000000000000000000000000000000000029a2241af62c00000000000000000000000000000000000000000000000000000000000000000060000000000000000000000000000000000000000000000000000000000000002000000000000000000000000000000000000000000000000000000000000029a8",
        "nonce": "0x9",
        "accessList": []
      },
      "additionalContracts": [],
      "isFixedGasLimit": false
    }
  ],
  "receipts": [
    {
      "transactionHash": "0xe7f5438c722985b6fd1ca59831ecc479787a142bff9714db949cb69662b06ed0",
      "transactionIndex": "0xb",
      "blockHash": "0xa40a07104d713af93b7c48560791b641a153103a6b256b9bf264faf3153aa729",
      "blockNumber": "0x566651",
      "from": "0x4eb5a9C1eD58Ebb475db83c794EA3267D42C85De",
      "to": "0x779877A7B0D9E8603169DdbD7836e478b4624789",
      "cumulativeGasUsed": "0xc9cdc",
      "gasUsed": "0xe77e",
      "contractAddress": null,
      "logs": [
        {
          "address": "0x779877A7B0D9E8603169DdbD7836e478b4624789",
          "topics": [
            "0xddf252ad1be2c89b69c2b068fc378daa952ba7f163c4a11628f55a4df523b3ef",
            "0x0000000000000000000000004eb5a9c1ed58ebb475db83c794ea3267d42c85de",
            "0x0000000000000000000000008103b0a8a00be2ddc778e6e7eaa21791cd364625"
          ],
          "data": "0x00000000000000000000000000000000000000000000000029a2241af62c0000",
          "blockHash": "0xa40a07104d713af93b7c48560791b641a153103a6b256b9bf264faf3153aa729",
          "blockNumber": "0x566651",
          "transactionHash": "0xe7f5438c722985b6fd1ca59831ecc479787a142bff9714db949cb69662b06ed0",
          "transactionIndex": "0xb",
          "logIndex": "0xa",
          "removed": false
        },
        {
          "address": "0x779877A7B0D9E8603169DdbD7836e478b4624789",
          "topics": [
            "0xe19260aff97b920c7df27010903aeb9c8d2be5d310a2c67824cf3f15396e4c16",
            "0x0000000000000000000000004eb5a9c1ed58ebb475db83c794ea3267d42c85de",
            "0x0000000000000000000000008103b0a8a00be2ddc778e6e7eaa21791cd364625"
          ],
          "data": "0x00000000000000000000000000000000000000000000000029a2241af62c00000000000000000000000000000000000000000000000000000000000000000040000000000000000000000000000000000000000000000000000000000000002000000000000000000000000000000000000000000000000000000000000029a8",
          "blockHash": "0xa40a07104d713af93b7c48560791b641a153103a6b256b9bf264faf3153aa729",
          "blockNumber": "0x566651",
          "transactionHash": "0xe7f5438c722985b6fd1ca59831ecc479787a142bff9714db949cb69662b06ed0",
          "transactionIndex": "0xb",
          "logIndex": "0xb",
          "removed": false
        },
        {
          "address": "0x8103B0A8A00be2DDC778e6e7eaa21791Cd364625",
          "topics": [
            "0xd39ec07f4e209f627a4c427971473820dc129761ba28de8906bd56f57101d4f8",
            "0x00000000000000000000000000000000000000000000000000000000000029a8"
          ],
          "data": "0x0000000000000000000000000000000000000000000000004563918244f400000000000000000000000000000000000000000000000000006f05b59d3b200000",
          "blockHash": "0xa40a07104d713af93b7c48560791b641a153103a6b256b9bf264faf3153aa729",
          "blockNumber": "0x566651",
          "transactionHash": "0xe7f5438c722985b6fd1ca59831ecc479787a142bff9714db949cb69662b06ed0",
          "transactionIndex": "0xb",
          "logIndex": "0xc",
          "removed": false
        }
      ],
      "status": "0x1",
      "logsBloom": "0x0000001400000000000000000000000000000000000000020000000002000000000000000000800000000000000000000000000000000000000000000000000000000000000020000000000800000000000000000002000000006000000000000000000000000000000000000000000000000000400000000000001000000000000000000c000020000000000000800010100020000000000800000000000000000000000000000000000000000000000000000000200000000400000000000000000002000000000000000000000000000000000000000100000000000000000000000000000000000000000000000000000000000000000000000000000000",
      "type": "0x2",
      "effectiveGasPrice": "0x1ac45011d"
    }
  ],
  "libraries": [],
  "pending": [],
  "returns": {},
  "timestamp": 1712679759,
  "chain": 11155111,
  "multi": false,
  "commit": "f05c34c"
}